:1001DB00FF83016D750183FFFF7F7701017F7FFF38
:1001EB00FF3B195D6D6173FFFFBB396D6D0193FFB4
:1001FB00FFCFD7DB0101DFFFFFB1317575058DFF38
:10020B00FF83016D6D099BFFFFF9F91D05E1F9FFF7
:10021B00FF93016D6D0193FFFFB3216D6D0183FFA3
:1003470020204700010002000400080010002000E0
:100357004000800100020004000800100020004057
:0C036700008000016700016900016800CF
:02022B008F083A
:10022D001203ED7FD01203B7AF081203B71203ED1F
:10023D007FD11203B71203747509008F0A1203F6EA
:10024D00E509C4F854F0C868FEE50AC4540F48FF28
:10025D007C007D0A1201C9E50A540F2FF50AEC3E08
:04026D00F509AF0AD6
:01027100226A
:1003D7007F0212022B8F357F0112022B8F46E4FF1B
:0603E70012022B8F2322FD
:100003001203D77F0212022B8F357F0112022B8F2F
:1000130046E53575F00A8475F008A424DBF974010C
:1000230035F0FA7BFF750B00750C00750D24120378
:1000330015E53575F00A84E5F075F008A424DBF9BD
:10004300740135F0FA7BFF750B00750C00750D24F8
:10005300120272E54675F00A8475F008A424DBF9F0
:10006300740135F0FA7BFF750B00750C00750D36C6
:10007300120315E54675F00A84E5F075F008A4242B
:10008300DBF9740135F0FA7BFF750B00750C007515
:100093000D36120272E4F567C3E567941074809419
:1000A30080400302000674242567F8E6F5A0743641
:1000B3002567F8E6F590E56725E02447F8E6FE08AE
:1000C300E6FF1202AFE56725E02447F8E6FE08E6FF
:1000D300FF1202E27F017E00120397E4FFFE120289
:0B00E300AFE4FFFE1202E2056780ADF3
:1002AF00C282C280C281E4FDEDC394107480948039
:1002BF00501CEE5480FAEF25E0FFEE33FEEAB480D7
:1002CF0004D2818002C281D280C2800D80DAD282B4
:0202DF00C282D9
:0102E10022FA
:1002E200C285C284C286E4FDEDC3941074809480FA
:1002F200501CEE5480FAEF25E0FFEE33FEEAB480A4
:1003020004D2868002C286D284C2840D80DAD2856B
:02031200C285A2
:0103140022C6
:060315008B088A09890A29
:10031B00E4FFEFC3940874809480501FAB08AA09C4
:10032B00A90A8F8275830012017AAB0BAA0CA90D57
:0B033B008F827583001201A70F80D78E
:010346002294
:060272008B088A09890ACD
:10027800E4F50EC3E50E9408748094805028AB080A
:10028800AA09A90A850E8275830012017AFFE50E74
:100298002408F582E433F583AB0BAA0CA90DEF1201
:0602A80001A7050E80CD48
:0102AE00222D
:10039700E4FDFCC3ED9FEC9E5015E4FBFA0BBB009C
:0F03A700010AEB647D4A70F50DBD00010C80E486
:0103B6002224
:0903ED00D2B0D2B1C2B1C2B022FB
:0903F600D2B0C2B1D2B1D2B022E2
:1003B700E4FEEEC3940874809480500FEF3392B13B
:0F03C700D2B0C2B0EF25E0FF0E80E7D2B0C2B0D7
:0103D6002204
:10037400E4FFFEEEC39408748094805015D2B0A2BA
:10038400B19200EF25E0FFA200E4334207C2B00EB1
:0203940080E106
:010396002244
:030000000200EE0D
:0C00EE00787FE4F6D8FD758169020135C9
:10017A00BB010CE58229F582E5833AF583E022503A
:10018A0006E92582F8E622BBFE06E92582F8E22284
:0D019A00E58229F582E5833AF583E493229E
:1001A700F8BB010DE58229F582E5833AF583E8F08E
:1001B700225006E92582C8F622BBFE05E92582C83A
:0201C700F22222
:1001C900EF8DF0A4A8F0CF8CF0A428CE8DF0A42E4A
:0201D900FE2204
:1000FA00020003E493A3F8E493A34003F68001F219
:10010A0008DFF48029E493A3F85407240CC8C33306
:10011A00C4540F4420C8834004F456800146F6DFD5
:10012A00E4800B0102040810204080900347E47E1B
:10013A00019360BCA3FF543F30E509541FFEE493CA
:10014A00A360010ECF54C025E060A840B8E493A391
:10015A00FAE493A3F8E493A3C8C582C8CAC583CABC
:10016A00F0A3C8C582C8CAC583CADFE9DEE780BE74
:010373000089
:00000001FF
