:10008F001008FF0100EEEE0001FFFF007676767696
:10009F0076FF202018000100020004000800100065
:1000AF002000400080010002000400080010002022
:0E00BF000040008000013800013A00013900C5
:1000CE00E4F538C3E53894107480948050F27408C7
:1000DE002538F8E6F5A0E53825E02418F8E6FE0800
:1000EE00E6FF1201047F017E00120137E4FFFE12CB
:0600FE000104053880CD6D
:10010400C282C280C281E4FDEDC3941074809480E5
:10011400501CEE5480FAEF25E0FFEE33FEEAB48083
:1001240004D2818002C281D280C2800D80DAD28260
:02013400C28285
:0101360022A6
:10013700E4FDFCC3ED9FEC9E5015E4FBFA0BBB00FE
:0F014700010AEB647D4A70F50DBD00010C80E4E8
:010156002286
:0A015700EF1F70011E144E70F72216
:03000000020003F8
:0C000300787FE4F6D8FD75813A02004ACF
:10000F000200CEE493A3F8E493A34003F68001F239
:10001F0008DFF48029E493A3F85407240CC8C333F2
:10002F00C4540F4420C8834004F456800146F6DFC1
:10003F00E4800B010204081020408090008FE47EC2
:10004F00019360BCA3FF543F30E509541FFEE493B6
:10005F00A360010ECF54C025E060A840B8E493A37D
:10006F00FAE493A3F8E493A3C8C582C8CAC583CAA8
:10007F00F0A3C8C582C8CAC583CADFE9DEE780BE60
:0100CD000032
:00000001FF
